{
  "contractName": "ZNft",
  "abi": [
    {
      "inputs": [],
      "stateMutability": "nonpayable",
      "type": "constructor"
    },
    {
      "anonymous": false,
      "inputs": [
        {
          "indexed": true,
          "internalType": "address",
          "name": "owner",
          "type": "address"
        },
        {
          "indexed": true,
          "internalType": "address",
          "name": "approved",
          "type": "address"
        },
        {
          "indexed": true,
          "internalType": "uint256",
          "name": "tokenId",
          "type": "uint256"
        }
      ],
      "name": "Approval",
      "type": "event"
    },
    {
      "anonymous": false,
      "inputs": [
        {
          "indexed": true,
          "internalType": "address",
          "name": "owner",
          "type": "address"
        },
        {
          "indexed": true,
          "internalType": "address",
          "name": "operator",
          "type": "address"
        },
        {
          "indexed": false,
          "internalType": "bool",
          "name": "approved",
          "type": "bool"
        }
      ],
      "name": "ApprovalForAll",
      "type": "event"
    },
    {
      "anonymous": false,
      "inputs": [
        {
          "indexed": true,
          "internalType": "address",
          "name": "previousOwner",
          "type": "address"
        },
        {
          "indexed": true,
          "internalType": "address",
          "name": "newOwner",
          "type": "address"
        }
      ],
      "name": "OwnershipTransferred",
      "type": "event"
    },
    {
      "anonymous": false,
      "inputs": [
        {
          "indexed": true,
          "internalType": "address",
          "name": "from",
          "type": "address"
        },
        {
          "indexed": true,
          "internalType": "address",
          "name": "to",
          "type": "address"
        },
        {
          "indexed": true,
          "internalType": "uint256",
          "name": "tokenId",
          "type": "uint256"
        }
      ],
      "name": "Transfer",
      "type": "event"
    },
    {
      "inputs": [],
      "name": "BASE_URI",
      "outputs": [
        {
          "internalType": "string",
          "name": "",
          "type": "string"
        }
      ],
      "stateMutability": "view",
      "type": "function",
      "constant": true
    },
    {
      "inputs": [],
      "name": "MAX_SUPPLY",
      "outputs": [
        {
          "internalType": "uint256",
          "name": "",
          "type": "uint256"
        }
      ],
      "stateMutability": "view",
      "type": "function",
      "constant": true
    },
    {
      "inputs": [],
      "name": "PRICE",
      "outputs": [
        {
          "internalType": "uint256",
          "name": "",
          "type": "uint256"
        }
      ],
      "stateMutability": "view",
      "type": "function",
      "constant": true
    },
    {
      "inputs": [],
      "name": "allowPublicMint",
      "outputs": [
        {
          "internalType": "bool",
          "name": "",
          "type": "bool"
        }
      ],
      "stateMutability": "view",
      "type": "function",
      "constant": true
    },
    {
      "inputs": [
        {
          "internalType": "address",
          "name": "to",
          "type": "address"
        },
        {
          "internalType": "uint256",
          "name": "tokenId",
          "type": "uint256"
        }
      ],
      "name": "approve",
      "outputs": [],
      "stateMutability": "nonpayable",
      "type": "function"
    },
    {
      "inputs": [
        {
          "internalType": "address",
          "name": "owner",
          "type": "address"
        }
      ],
      "name": "balanceOf",
      "outputs": [
        {
          "internalType": "uint256",
          "name": "",
          "type": "uint256"
        }
      ],
      "stateMutability": "view",
      "type": "function",
      "constant": true
    },
    {
      "inputs": [
        {
          "internalType": "uint256",
          "name": "tokenId",
          "type": "uint256"
        }
      ],
      "name": "getApproved",
      "outputs": [
        {
          "internalType": "address",
          "name": "",
          "type": "address"
        }
      ],
      "stateMutability": "view",
      "type": "function",
      "constant": true
    },
    {
      "inputs": [
        {
          "internalType": "address",
          "name": "owner",
          "type": "address"
        },
        {
          "internalType": "address",
          "name": "operator",
          "type": "address"
        }
      ],
      "name": "isApprovedForAll",
      "outputs": [
        {
          "internalType": "bool",
          "name": "",
          "type": "bool"
        }
      ],
      "stateMutability": "view",
      "type": "function",
      "constant": true
    },
    {
      "inputs": [
        {
          "internalType": "address",
          "name": "",
          "type": "address"
        }
      ],
      "name": "minters",
      "outputs": [
        {
          "internalType": "bool",
          "name": "",
          "type": "bool"
        }
      ],
      "stateMutability": "view",
      "type": "function",
      "constant": true
    },
    {
      "inputs": [],
      "name": "mintingPaused",
      "outputs": [
        {
          "internalType": "bool",
          "name": "",
          "type": "bool"
        }
      ],
      "stateMutability": "view",
      "type": "function",
      "constant": true
    },
    {
      "inputs": [],
      "name": "name",
      "outputs": [
        {
          "internalType": "string",
          "name": "",
          "type": "string"
        }
      ],
      "stateMutability": "view",
      "type": "function",
      "constant": true
    },
    {
      "inputs": [],
      "name": "owner",
      "outputs": [
        {
          "internalType": "address",
          "name": "",
          "type": "address"
        }
      ],
      "stateMutability": "view",
      "type": "function",
      "constant": true
    },
    {
      "inputs": [
        {
          "internalType": "uint256",
          "name": "tokenId",
          "type": "uint256"
        }
      ],
      "name": "ownerOf",
      "outputs": [
        {
          "internalType": "address",
          "name": "",
          "type": "address"
        }
      ],
      "stateMutability": "view",
      "type": "function",
      "constant": true
    },
    {
      "inputs": [],
      "name": "renounceOwnership",
      "outputs": [],
      "stateMutability": "nonpayable",
      "type": "function"
    },
    {
      "inputs": [
        {
          "internalType": "address",
          "name": "from",
          "type": "address"
        },
        {
          "internalType": "address",
          "name": "to",
          "type": "address"
        },
        {
          "internalType": "uint256",
          "name": "tokenId",
          "type": "uint256"
        }
      ],
      "name": "safeTransferFrom",
      "outputs": [],
      "stateMutability": "nonpayable",
      "type": "function"
    },
    {
      "inputs": [
        {
          "internalType": "address",
          "name": "from",
          "type": "address"
        },
        {
          "internalType": "address",
          "name": "to",
          "type": "address"
        },
        {
          "internalType": "uint256",
          "name": "tokenId",
          "type": "uint256"
        },
        {
          "internalType": "bytes",
          "name": "_data",
          "type": "bytes"
        }
      ],
      "name": "safeTransferFrom",
      "outputs": [],
      "stateMutability": "nonpayable",
      "type": "function"
    },
    {
      "inputs": [
        {
          "internalType": "address",
          "name": "operator",
          "type": "address"
        },
        {
          "internalType": "bool",
          "name": "approved",
          "type": "bool"
        }
      ],
      "name": "setApprovalForAll",
      "outputs": [],
      "stateMutability": "nonpayable",
      "type": "function"
    },
    {
      "inputs": [
        {
          "internalType": "bytes4",
          "name": "interfaceId",
          "type": "bytes4"
        }
      ],
      "name": "supportsInterface",
      "outputs": [
        {
          "internalType": "bool",
          "name": "",
          "type": "bool"
        }
      ],
      "stateMutability": "view",
      "type": "function",
      "constant": true
    },
    {
      "inputs": [],
      "name": "symbol",
      "outputs": [
        {
          "internalType": "string",
          "name": "",
          "type": "string"
        }
      ],
      "stateMutability": "view",
      "type": "function",
      "constant": true
    },
    {
      "inputs": [
        {
          "internalType": "uint256",
          "name": "index",
          "type": "uint256"
        }
      ],
      "name": "tokenByIndex",
      "outputs": [
        {
          "internalType": "uint256",
          "name": "",
          "type": "uint256"
        }
      ],
      "stateMutability": "view",
      "type": "function",
      "constant": true
    },
    {
      "inputs": [
        {
          "internalType": "address",
          "name": "owner",
          "type": "address"
        },
        {
          "internalType": "uint256",
          "name": "index",
          "type": "uint256"
        }
      ],
      "name": "tokenOfOwnerByIndex",
      "outputs": [
        {
          "internalType": "uint256",
          "name": "",
          "type": "uint256"
        }
      ],
      "stateMutability": "view",
      "type": "function",
      "constant": true
    },
    {
      "inputs": [],
      "name": "totalSupply",
      "outputs": [
        {
          "internalType": "uint256",
          "name": "",
          "type": "uint256"
        }
      ],
      "stateMutability": "view",
      "type": "function",
      "constant": true
    },
    {
      "inputs": [
        {
          "internalType": "address",
          "name": "from",
          "type": "address"
        },
        {
          "internalType": "address",
          "name": "to",
          "type": "address"
        },
        {
          "internalType": "uint256",
          "name": "tokenId",
          "type": "uint256"
        }
      ],
      "name": "transferFrom",
      "outputs": [],
      "stateMutability": "nonpayable",
      "type": "function"
    },
    {
      "inputs": [
        {
          "internalType": "address",
          "name": "newOwner",
          "type": "address"
        }
      ],
      "name": "transferOwnership",
      "outputs": [],
      "stateMutability": "nonpayable",
      "type": "function"
    },
    {
      "inputs": [
        {
          "internalType": "bool",
          "name": "isPaused",
          "type": "bool"
        }
      ],
      "name": "setMintingPaused",
      "outputs": [],
      "stateMutability": "nonpayable",
      "type": "function"
    },
    {
      "inputs": [
        {
          "internalType": "bool",
          "name": "isAllowed",
          "type": "bool"
        }
      ],
      "name": "setAllowPublicMint",
      "outputs": [],
      "stateMutability": "nonpayable",
      "type": "function"
    },
    {
      "inputs": [
        {
          "internalType": "address[]",
          "name": "addrs",
          "type": "address[]"
        }
      ],
      "name": "addToMinters",
      "outputs": [],
      "stateMutability": "nonpayable",
      "type": "function"
    },
    {
      "inputs": [
        {
          "internalType": "address",
          "name": "addr",
          "type": "address"
        }
      ],
      "name": "isMinter",
      "outputs": [
        {
          "internalType": "bool",
          "name": "",
          "type": "bool"
        }
      ],
      "stateMutability": "view",
      "type": "function",
      "constant": true
    },
    {
      "inputs": [],
      "name": "mint",
      "outputs": [],
      "stateMutability": "payable",
      "type": "function",
      "payable": true
    },
    {
      "inputs": [
        {
          "internalType": "uint256",
          "name": "tokenId",
          "type": "uint256"
        }
      ],
      "name": "tokenURI",
      "outputs": [
        {
          "internalType": "string",
          "name": "",
          "type": "string"
        }
      ],
      "stateMutability": "view",
      "type": "function",
      "constant": true
    },
    {
      "inputs": [
        {
          "internalType": "string",
          "name": "uri",
          "type": "string"
        }
      ],
      "name": "setBaseURI",
      "outputs": [],
      "stateMutability": "nonpayable",
      "type": "function"
    },
    {
      "inputs": [],
      "name": "withdraw",
      "outputs": [],
      "stateMutability": "nonpayable",
      "type": "function"
    }
  ],
  "bytecode": "0x608060405273d3be9b0efa08ec7fb13f98d36354ffa3afa9bb91600b60006101000a81548173ffffffffffffffffffffffffffffffffffffffff021916908373ffffffffffffffffffffffffffffffffffffffff1602179055506000600e60006101000a81548160ff0219169083151502179055506000600e60016101000a81548160ff0219169083151502179055503480156200009c57600080fd5b506040518060400160405280601181526020017f5a204e46542054656d706c6174652076310000000000000000000000000000008152506040518060400160405280600581526020017f5a4e46543100000000000000000000000000000000000000000000000000000081525081600090805190602001906200012192919062000231565b5080600190805190602001906200013a92919062000231565b5050506200015d620001516200016360201b60201c565b6200016b60201b60201c565b62000346565b600033905090565b6000600a60009054906101000a900473ffffffffffffffffffffffffffffffffffffffff16905081600a60006101000a81548173ffffffffffffffffffffffffffffffffffffffff021916908373ffffffffffffffffffffffffffffffffffffffff1602179055508173ffffffffffffffffffffffffffffffffffffffff168173ffffffffffffffffffffffffffffffffffffffff167f8be0079c531659141344cd1fd0a4f28419497f9722a3daafe3b4186f6b6457e060405160405180910390a35050565b8280546200023f9062000310565b90600052602060002090601f016020900481019282620002635760008555620002af565b82601f106200027e57805160ff1916838001178555620002af565b82800160010185558215620002af579182015b82811115620002ae57825182559160200191906001019062000291565b5b509050620002be9190620002c2565b5090565b5b80821115620002dd576000816000905550600101620002c3565b5090565b7f4e487b7100000000000000000000000000000000000000000000000000000000600052602260045260246000fd5b600060028204905060018216806200032957607f821691505b6020821081141562000340576200033f620002e1565b5b50919050565b61419280620003566000396000f3fe6080604052600436106101e35760003560e01c8063715018a611610102578063b88d4fde11610095578063e1a283d611610064578063e1a283d6146106d1578063e985e9c5146106fc578063f2fde38b14610739578063f46eccc414610762576101e3565b8063b88d4fde14610617578063c87b56dd14610640578063d0b659841461067d578063dbddb26a146106a6576101e3565b80639edcc310116100d15780639edcc3101461055d578063a22cb46514610588578063aa271e1a146105b1578063ad13419d146105ee576101e3565b8063715018a6146104c55780638d859f3e146104dc5780638da5cb5b1461050757806395d89b4114610532576101e3565b80632f745c591161017a5780634f6ccce7116101495780634f6ccce7146103e557806355f804b3146104225780636352211e1461044b57806370a0823114610488576101e3565b80632f745c591461033d57806332cb6b0c1461037a5780633ccfd60b146103a557806342842e0e146103bc576101e3565b80630f6da600116101b65780630f6da600146102b65780631249c58b146102df57806318160ddd146102e957806323b872dd14610314576101e3565b806301ffc9a7146101e857806306fdde0314610225578063081812fc14610250578063095ea7b31461028d575b600080fd5b3480156101f457600080fd5b5061020f600480360381019061020a9190612af4565b61079f565b60405161021c9190612b3c565b60405180910390f35b34801561023157600080fd5b5061023a610819565b6040516102479190612bf0565b60405180910390f35b34801561025c57600080fd5b5061027760048036038101906102729190612c48565b6108ab565b6040516102849190612cb6565b60405180910390f35b34801561029957600080fd5b506102b460048036038101906102af9190612cfd565b610930565b005b3480156102c257600080fd5b506102dd60048036038101906102d89190612da2565b610a48565b005b6102e7610bdf565b005b3480156102f557600080fd5b506102fe610d1a565b60405161030b9190612dfe565b60405180910390f35b34801561032057600080fd5b5061033b60048036038101906103369190612e19565b610d27565b005b34801561034957600080fd5b50610364600480360381019061035f9190612cfd565b610d87565b6040516103719190612dfe565b60405180910390f35b34801561038657600080fd5b5061038f610e2c565b60405161039c9190612dfe565b60405180910390f35b3480156103b157600080fd5b506103ba610e31565b005b3480156103c857600080fd5b506103e360048036038101906103de9190612e19565b610f77565b005b3480156103f157600080fd5b5061040c60048036038101906104079190612c48565b610f97565b6040516104199190612dfe565b60405180910390f35b34801561042e57600080fd5b5061044960048036038101906104449190612f9c565b611008565b005b34801561045757600080fd5b50610472600480360381019061046d9190612c48565b61109e565b60405161047f9190612cb6565b60405180910390f35b34801561049457600080fd5b506104af60048036038101906104aa9190612fe5565b611150565b6040516104bc9190612dfe565b60405180910390f35b3480156104d157600080fd5b506104da611208565b005b3480156104e857600080fd5b506104f1611290565b6040516104fe9190612dfe565b60405180910390f35b34801561051357600080fd5b5061051c61129c565b6040516105299190612cb6565b60405180910390f35b34801561053e57600080fd5b506105476112c6565b6040516105549190612bf0565b60405180910390f35b34801561056957600080fd5b50610572611358565b60405161057f9190612b3c565b60405180910390f35b34801561059457600080fd5b506105af60048036038101906105aa919061303e565b61136b565b005b3480156105bd57600080fd5b506105d860048036038101906105d39190612fe5565b6114ec565b6040516105e59190612b3c565b60405180910390f35b3480156105fa57600080fd5b506106156004803603810190610610919061307e565b611542565b005b34801561062357600080fd5b5061063e6004803603810190610639919061314c565b6115db565b005b34801561064c57600080fd5b5061066760048036038101906106629190612c48565b61163d565b6040516106749190612bf0565b60405180910390f35b34801561068957600080fd5b506106a4600480360381019061069f919061307e565b6116b9565b005b3480156106b257600080fd5b506106bb611752565b6040516106c89190612bf0565b60405180910390f35b3480156106dd57600080fd5b506106e66117e0565b6040516106f39190612b3c565b60405180910390f35b34801561070857600080fd5b50610723600480360381019061071e91906131cf565b6117f3565b6040516107309190612b3c565b60405180910390f35b34801561074557600080fd5b50610760600480360381019061075b9190612fe5565b611887565b005b34801561076e57600080fd5b5061078960048036038101906107849190612fe5565b61197f565b6040516107969190612b3c565b60405180910390f35b60007f780e9d63000000000000000000000000000000000000000000000000000000007bffffffffffffffffffffffffffffffffffffffffffffffffffffffff1916827bffffffffffffffffffffffffffffffffffffffffffffffffffffffff1916148061081257506108118261199f565b5b9050919050565b6060600080546108289061323e565b80601f01602080910402602001604051908101604052809291908181526020018280546108549061323e565b80156108a15780601f10610876576101008083540402835291602001916108a1565b820191906000526020600020905b81548152906001019060200180831161088457829003601f168201915b5050505050905090565b60006108b682611a81565b6108f5576040517f08c379a00000000000000000000000000000000000000000000000000000000081526004016108ec906132e2565b60405180910390fd5b6004600083815260200190815260200160002060009054906101000a900473ffffffffffffffffffffffffffffffffffffffff169050919050565b600061093b8261109e565b90508073ffffffffffffffffffffffffffffffffffffffff168373ffffffffffffffffffffffffffffffffffffffff1614156109ac576040517f08c379a00000000000000000000000000000000000000000000000000000000081526004016109a390613374565b60405180910390fd5b8073ffffffffffffffffffffffffffffffffffffffff166109cb611aed565b73ffffffffffffffffffffffffffffffffffffffff1614806109fa57506109f9816109f4611aed565b6117f3565b5b610a39576040517f08c379a0000000000000000000000000000000000000000000000000000000008152600401610a3090613406565b60405180910390fd5b610a438383611af5565b505050565b610a50611aed565b73ffffffffffffffffffffffffffffffffffffffff16610a6e61129c565b73ffffffffffffffffffffffffffffffffffffffff1614610ac4576040517f08c379a0000000000000000000000000000000000000000000000000000000008152600401610abb90613472565b60405180910390fd5b60005b82829050811015610bda576000838383818110610ae757610ae6613492565b5b9050602002016020810190610afc9190612fe5565b9050600073ffffffffffffffffffffffffffffffffffffffff168173ffffffffffffffffffffffffffffffffffffffff161415610b6e576040517f08c379a0000000000000000000000000000000000000000000000000000000008152600401610b659061350d565b60405180910390fd5b6001600d60008373ffffffffffffffffffffffffffffffffffffffff1673ffffffffffffffffffffffffffffffffffffffff16815260200190815260200160002060006101000a81548160ff021916908315150217905550508080610bd29061355c565b915050610ac7565b505050565b600e60009054906101000a900460ff1615610c2f576040517f08c379a0000000000000000000000000000000000000000000000000000000008152600401610c26906135f1565b60405180910390fd5b600d60003373ffffffffffffffffffffffffffffffffffffffff1673ffffffffffffffffffffffffffffffffffffffff16815260200190815260200160002060009054906101000a900460ff1680610c935750600e60019054906101000a900460ff165b610cd2576040517f08c379a0000000000000000000000000000000000000000000000000000000008152600401610cc99061365d565b60405180910390fd5b6701b4fbd92b5f8000341015610ce757600080fd5b60006001610cf3610d1a565b610cfd919061367d565b90506064811115610d0d57600080fd5b610d173382611bae565b50565b6000600880549050905090565b610d38610d32611aed565b82611bcc565b610d77576040517f08c379a0000000000000000000000000000000000000000000000000000000008152600401610d6e90613745565b60405180910390fd5b610d82838383611caa565b505050565b6000610d9283611150565b8210610dd3576040517f08c379a0000000000000000000000000000000000000000000000000000000008152600401610dca906137d7565b60405180910390fd5b600660008473ffffffffffffffffffffffffffffffffffffffff1673ffffffffffffffffffffffffffffffffffffffff168152602001908152602001600020600083815260200190815260200160002054905092915050565b606481565b610e39611aed565b73ffffffffffffffffffffffffffffffffffffffff16610e5761129c565b73ffffffffffffffffffffffffffffffffffffffff1614610ead576040517f08c379a0000000000000000000000000000000000000000000000000000000008152600401610ea490613472565b60405180910390fd5b600b60009054906101000a900473ffffffffffffffffffffffffffffffffffffffff1673ffffffffffffffffffffffffffffffffffffffff166108fc6064600247610ef891906137f7565b610f029190613880565b9081150290604051600060405180830381858888f19350505050158015610f2d573d6000803e3d6000fd5b503373ffffffffffffffffffffffffffffffffffffffff166108fc479081150290604051600060405180830381858888f19350505050158015610f74573d6000803e3d6000fd5b50565b610f92838383604051806020016040528060008152506115db565b505050565b6000610fa1610d1a565b8210610fe2576040517f08c379a0000000000000000000000000000000000000000000000000000000008152600401610fd990613923565b60405180910390fd5b60088281548110610ff657610ff5613492565b5b90600052602060002001549050919050565b611010611aed565b73ffffffffffffffffffffffffffffffffffffffff1661102e61129c565b73ffffffffffffffffffffffffffffffffffffffff1614611084576040517f08c379a000000000000000000000000000000000000000000000000000000000815260040161107b90613472565b60405180910390fd5b80600c908051906020019061109a9291906129e5565b5050565b6000806002600084815260200190815260200160002060009054906101000a900473ffffffffffffffffffffffffffffffffffffffff169050600073ffffffffffffffffffffffffffffffffffffffff168173ffffffffffffffffffffffffffffffffffffffff161415611147576040517f08c379a000000000000000000000000000000000000000000000000000000000815260040161113e906139b5565b60405180910390fd5b80915050919050565b60008073ffffffffffffffffffffffffffffffffffffffff168273ffffffffffffffffffffffffffffffffffffffff1614156111c1576040517f08c379a00000000000000000000000000000000000000000000000000000000081526004016111b890613a47565b60405180910390fd5b600360008373ffffffffffffffffffffffffffffffffffffffff1673ffffffffffffffffffffffffffffffffffffffff168152602001908152602001600020549050919050565b611210611aed565b73ffffffffffffffffffffffffffffffffffffffff1661122e61129c565b73ffffffffffffffffffffffffffffffffffffffff1614611284576040517f08c379a000000000000000000000000000000000000000000000000000000000815260040161127b90613472565b60405180910390fd5b61128e6000611f06565b565b6701b4fbd92b5f800081565b6000600a60009054906101000a900473ffffffffffffffffffffffffffffffffffffffff16905090565b6060600180546112d59061323e565b80601f01602080910402602001604051908101604052809291908181526020018280546113019061323e565b801561134e5780601f106113235761010080835404028352916020019161134e565b820191906000526020600020905b81548152906001019060200180831161133157829003601f168201915b5050505050905090565b600e60019054906101000a900460ff1681565b611373611aed565b73ffffffffffffffffffffffffffffffffffffffff168273ffffffffffffffffffffffffffffffffffffffff1614156113e1576040517f08c379a00000000000000000000000000000000000000000000000000000000081526004016113d890613ab3565b60405180910390fd5b80600560006113ee611aed565b73ffffffffffffffffffffffffffffffffffffffff1673ffffffffffffffffffffffffffffffffffffffff16815260200190815260200160002060008473ffffffffffffffffffffffffffffffffffffffff1673ffffffffffffffffffffffffffffffffffffffff16815260200190815260200160002060006101000a81548160ff0219169083151502179055508173ffffffffffffffffffffffffffffffffffffffff1661149b611aed565b73ffffffffffffffffffffffffffffffffffffffff167f17307eab39ab6107e8899845ad3d59bd9653f200f220920489ca2b5937696c31836040516114e09190612b3c565b60405180910390a35050565b6000600d60008373ffffffffffffffffffffffffffffffffffffffff1673ffffffffffffffffffffffffffffffffffffffff16815260200190815260200160002060009054906101000a900460ff169050919050565b61154a611aed565b73ffffffffffffffffffffffffffffffffffffffff1661156861129c565b73ffffffffffffffffffffffffffffffffffffffff16146115be576040517f08c379a00000000000000000000000000000000000000000000000000000000081526004016115b590613472565b60405180910390fd5b80600e60006101000a81548160ff02191690831515021790555050565b6115ec6115e6611aed565b83611bcc565b61162b576040517f08c379a000000000000000000000000000000000000000000000000000000000815260040161162290613745565b60405180910390fd5b61163784848484611fcc565b50505050565b606061164882611a81565b611687576040517f08c379a000000000000000000000000000000000000000000000000000000000815260040161167e90613b1f565b60405180910390fd5b600c61169283612028565b6040516020016116a3929190613c0f565b6040516020818303038152906040529050919050565b6116c1611aed565b73ffffffffffffffffffffffffffffffffffffffff166116df61129c565b73ffffffffffffffffffffffffffffffffffffffff1614611735576040517f08c379a000000000000000000000000000000000000000000000000000000000815260040161172c90613472565b60405180910390fd5b80600e60016101000a81548160ff02191690831515021790555050565b600c805461175f9061323e565b80601f016020809104026020016040519081016040528092919081815260200182805461178b9061323e565b80156117d85780601f106117ad576101008083540402835291602001916117d8565b820191906000526020600020905b8154815290600101906020018083116117bb57829003601f168201915b505050505081565b600e60009054906101000a900460ff1681565b6000600560008473ffffffffffffffffffffffffffffffffffffffff1673ffffffffffffffffffffffffffffffffffffffff16815260200190815260200160002060008373ffffffffffffffffffffffffffffffffffffffff1673ffffffffffffffffffffffffffffffffffffffff16815260200190815260200160002060009054906101000a900460ff16905092915050565b61188f611aed565b73ffffffffffffffffffffffffffffffffffffffff166118ad61129c565b73ffffffffffffffffffffffffffffffffffffffff1614611903576040517f08c379a00000000000000000000000000000000000000000000000000000000081526004016118fa90613472565b60405180910390fd5b600073ffffffffffffffffffffffffffffffffffffffff168173ffffffffffffffffffffffffffffffffffffffff161415611973576040517f08c379a000000000000000000000000000000000000000000000000000000000815260040161196a90613ca5565b60405180910390fd5b61197c81611f06565b50565b600d6020528060005260406000206000915054906101000a900460ff1681565b60007f80ac58cd000000000000000000000000000000000000000000000000000000007bffffffffffffffffffffffffffffffffffffffffffffffffffffffff1916827bffffffffffffffffffffffffffffffffffffffffffffffffffffffff19161480611a6a57507f5b5e139f000000000000000000000000000000000000000000000000000000007bffffffffffffffffffffffffffffffffffffffffffffffffffffffff1916827bffffffffffffffffffffffffffffffffffffffffffffffffffffffff1916145b80611a7a5750611a7982612189565b5b9050919050565b60008073ffffffffffffffffffffffffffffffffffffffff166002600084815260200190815260200160002060009054906101000a900473ffffffffffffffffffffffffffffffffffffffff1673ffffffffffffffffffffffffffffffffffffffff1614159050919050565b600033905090565b816004600083815260200190815260200160002060006101000a81548173ffffffffffffffffffffffffffffffffffffffff021916908373ffffffffffffffffffffffffffffffffffffffff160217905550808273ffffffffffffffffffffffffffffffffffffffff16611b688361109e565b73ffffffffffffffffffffffffffffffffffffffff167f8c5be1e5ebec7d5bd14f71427d1e84f3dd0314c0f7b2291e5b200ac8c7c3b92560405160405180910390a45050565b611bc88282604051806020016040528060008152506121f3565b5050565b6000611bd782611a81565b611c16576040517f08c379a0000000000000000000000000000000000000000000000000000000008152600401611c0d90613d37565b60405180910390fd5b6000611c218361109e565b90508073ffffffffffffffffffffffffffffffffffffffff168473ffffffffffffffffffffffffffffffffffffffff161480611c9057508373ffffffffffffffffffffffffffffffffffffffff16611c78846108ab565b73ffffffffffffffffffffffffffffffffffffffff16145b80611ca15750611ca081856117f3565b5b91505092915050565b8273ffffffffffffffffffffffffffffffffffffffff16611cca8261109e565b73ffffffffffffffffffffffffffffffffffffffff1614611d20576040517f08c379a0000000000000000000000000000000000000000000000000000000008152600401611d1790613dc9565b60405180910390fd5b600073ffffffffffffffffffffffffffffffffffffffff168273ffffffffffffffffffffffffffffffffffffffff161415611d90576040517f08c379a0000000000000000000000000000000000000000000000000000000008152600401611d8790613e5b565b60405180910390fd5b611d9b83838361224e565b611da6600082611af5565b6001600360008573ffffffffffffffffffffffffffffffffffffffff1673ffffffffffffffffffffffffffffffffffffffff1681526020019081526020016000206000828254611df69190613e7b565b925050819055506001600360008473ffffffffffffffffffffffffffffffffffffffff1673ffffffffffffffffffffffffffffffffffffffff1681526020019081526020016000206000828254611e4d919061367d565b92505081905550816002600083815260200190815260200160002060006101000a81548173ffffffffffffffffffffffffffffffffffffffff021916908373ffffffffffffffffffffffffffffffffffffffff160217905550808273ffffffffffffffffffffffffffffffffffffffff168473ffffffffffffffffffffffffffffffffffffffff167fddf252ad1be2c89b69c2b068fc378daa952ba7f163c4a11628f55a4df523b3ef60405160405180910390a4505050565b6000600a60009054906101000a900473ffffffffffffffffffffffffffffffffffffffff16905081600a60006101000a81548173ffffffffffffffffffffffffffffffffffffffff021916908373ffffffffffffffffffffffffffffffffffffffff1602179055508173ffffffffffffffffffffffffffffffffffffffff168173ffffffffffffffffffffffffffffffffffffffff167f8be0079c531659141344cd1fd0a4f28419497f9722a3daafe3b4186f6b6457e060405160405180910390a35050565b611fd7848484611caa565b611fe384848484612362565b612022576040517f08c379a000000000000000000000000000000000000000000000000000000000815260040161201990613f21565b60405180910390fd5b50505050565b60606000821415612070576040518060400160405280600181526020017f30000000000000000000000000000000000000000000000000000000000000008152509050612184565b600082905060005b600082146120a257808061208b9061355c565b915050600a8261209b9190613880565b9150612078565b60008167ffffffffffffffff8111156120be576120bd612e71565b5b6040519080825280601f01601f1916602001820160405280156120f05781602001600182028036833780820191505090505b5090505b6000851461217d576001826121099190613e7b565b9150600a856121189190613f41565b6030612124919061367d565b60f81b81838151811061213a57612139613492565b5b60200101907effffffffffffffffffffffffffffffffffffffffffffffffffffffffffffff1916908160001a905350600a856121769190613880565b94506120f4565b8093505050505b919050565b60007f01ffc9a7000000000000000000000000000000000000000000000000000000007bffffffffffffffffffffffffffffffffffffffffffffffffffffffff1916827bffffffffffffffffffffffffffffffffffffffffffffffffffffffff1916149050919050565b6121fd83836124f9565b61220a6000848484612362565b612249576040517f08c379a000000000000000000000000000000000000000000000000000000000815260040161224090613f21565b60405180910390fd5b505050565b6122598383836126c7565b600073ffffffffffffffffffffffffffffffffffffffff168373ffffffffffffffffffffffffffffffffffffffff16141561229c57612297816126cc565b6122db565b8173ffffffffffffffffffffffffffffffffffffffff168373ffffffffffffffffffffffffffffffffffffffff16146122da576122d98382612715565b5b5b600073ffffffffffffffffffffffffffffffffffffffff168273ffffffffffffffffffffffffffffffffffffffff16141561231e5761231981612882565b61235d565b8273ffffffffffffffffffffffffffffffffffffffff168273ffffffffffffffffffffffffffffffffffffffff161461235c5761235b8282612953565b5b5b505050565b60006123838473ffffffffffffffffffffffffffffffffffffffff166129d2565b156124ec578373ffffffffffffffffffffffffffffffffffffffff1663150b7a026123ac611aed565b8786866040518563ffffffff1660e01b81526004016123ce9493929190613fc7565b602060405180830381600087803b1580156123e857600080fd5b505af192505050801561241957506040513d601f19601f820116820180604052508101906124169190614028565b60015b61249c573d8060008114612449576040519150601f19603f3d011682016040523d82523d6000602084013e61244e565b606091505b50600081511415612494576040517f08c379a000000000000000000000000000000000000000000000000000000000815260040161248b90613f21565b60405180910390fd5b805181602001fd5b63150b7a0260e01b7bffffffffffffffffffffffffffffffffffffffffffffffffffffffff1916817bffffffffffffffffffffffffffffffffffffffffffffffffffffffff1916149150506124f1565b600190505b949350505050565b600073ffffffffffffffffffffffffffffffffffffffff168273ffffffffffffffffffffffffffffffffffffffff161415612569576040517f08c379a0000000000000000000000000000000000000000000000000000000008152600401612560906140a1565b60405180910390fd5b61257281611a81565b156125b2576040517f08c379a00000000000000000000000000000000000000000000000000000000081526004016125a99061410d565b60405180910390fd5b6125be6000838361224e565b6001600360008473ffffffffffffffffffffffffffffffffffffffff1673ffffffffffffffffffffffffffffffffffffffff168152602001908152602001600020600082825461260e919061367d565b92505081905550816002600083815260200190815260200160002060006101000a81548173ffffffffffffffffffffffffffffffffffffffff021916908373ffffffffffffffffffffffffffffffffffffffff160217905550808273ffffffffffffffffffffffffffffffffffffffff16600073ffffffffffffffffffffffffffffffffffffffff167fddf252ad1be2c89b69c2b068fc378daa952ba7f163c4a11628f55a4df523b3ef60405160405180910390a45050565b505050565b6008805490506009600083815260200190815260200160002081905550600881908060018154018082558091505060019003906000526020600020016000909190919091505550565b6000600161272284611150565b61272c9190613e7b565b9050600060076000848152602001908152602001600020549050818114612811576000600660008673ffffffffffffffffffffffffffffffffffffffff1673ffffffffffffffffffffffffffffffffffffffff168152602001908152602001600020600084815260200190815260200160002054905080600660008773ffffffffffffffffffffffffffffffffffffffff1673ffffffffffffffffffffffffffffffffffffffff168152602001908152602001600020600084815260200190815260200160002081905550816007600083815260200190815260200160002081905550505b6007600084815260200190815260200160002060009055600660008573ffffffffffffffffffffffffffffffffffffffff1673ffffffffffffffffffffffffffffffffffffffff16815260200190815260200160002060008381526020019081526020016000206000905550505050565b600060016008805490506128969190613e7b565b90506000600960008481526020019081526020016000205490506000600883815481106128c6576128c5613492565b5b9060005260206000200154905080600883815481106128e8576128e7613492565b5b9060005260206000200181905550816009600083815260200190815260200160002081905550600960008581526020019081526020016000206000905560088054806129375761293661412d565b5b6001900381819060005260206000200160009055905550505050565b600061295e83611150565b905081600660008573ffffffffffffffffffffffffffffffffffffffff1673ffffffffffffffffffffffffffffffffffffffff168152602001908152602001600020600083815260200190815260200160002081905550806007600084815260200190815260200160002081905550505050565b600080823b905060008111915050919050565b8280546129f19061323e565b90600052602060002090601f016020900481019282612a135760008555612a5a565b82601f10612a2c57805160ff1916838001178555612a5a565b82800160010185558215612a5a579182015b82811115612a59578251825591602001919060010190612a3e565b5b509050612a679190612a6b565b5090565b5b80821115612a84576000816000905550600101612a6c565b5090565b6000604051905090565b600080fd5b600080fd5b60007fffffffff0000000000000000000000000000000000000000000000000000000082169050919050565b612ad181612a9c565b8114612adc57600080fd5b50565b600081359050612aee81612ac8565b92915050565b600060208284031215612b0a57612b09612a92565b5b6000612b1884828501612adf565b91505092915050565b60008115159050919050565b612b3681612b21565b82525050565b6000602082019050612b516000830184612b2d565b92915050565b600081519050919050565b600082825260208201905092915050565b60005b83811015612b91578082015181840152602081019050612b76565b83811115612ba0576000848401525b50505050565b6000601f19601f8301169050919050565b6000612bc282612b57565b612bcc8185612b62565b9350612bdc818560208601612b73565b612be581612ba6565b840191505092915050565b60006020820190508181036000830152612c0a8184612bb7565b905092915050565b6000819050919050565b612c2581612c12565b8114612c3057600080fd5b50565b600081359050612c4281612c1c565b92915050565b600060208284031215612c5e57612c5d612a92565b5b6000612c6c84828501612c33565b91505092915050565b600073ffffffffffffffffffffffffffffffffffffffff82169050919050565b6000612ca082612c75565b9050919050565b612cb081612c95565b82525050565b6000602082019050612ccb6000830184612ca7565b92915050565b612cda81612c95565b8114612ce557600080fd5b50565b600081359050612cf781612cd1565b92915050565b60008060408385031215612d1457612d13612a92565b5b6000612d2285828601612ce8565b9250506020612d3385828601612c33565b9150509250929050565b600080fd5b600080fd5b600080fd5b60008083601f840112612d6257612d61612d3d565b5b8235905067ffffffffffffffff811115612d7f57612d7e612d42565b5b602083019150836020820283011115612d9b57612d9a612d47565b5b9250929050565b60008060208385031215612db957612db8612a92565b5b600083013567ffffffffffffffff811115612dd757612dd6612a97565b5b612de385828601612d4c565b92509250509250929050565b612df881612c12565b82525050565b6000602082019050612e136000830184612def565b92915050565b600080600060608486031215612e3257612e31612a92565b5b6000612e4086828701612ce8565b9350506020612e5186828701612ce8565b9250506040612e6286828701612c33565b9150509250925092565b600080fd5b7f4e487b7100000000000000000000000000000000000000000000000000000000600052604160045260246000fd5b612ea982612ba6565b810181811067ffffffffffffffff82111715612ec857612ec7612e71565b5b80604052505050565b6000612edb612a88565b9050612ee78282612ea0565b919050565b600067ffffffffffffffff821115612f0757612f06612e71565b5b612f1082612ba6565b9050602081019050919050565b82818337600083830152505050565b6000612f3f612f3a84612eec565b612ed1565b905082815260208101848484011115612f5b57612f5a612e6c565b5b612f66848285612f1d565b509392505050565b600082601f830112612f8357612f82612d3d565b5b8135612f93848260208601612f2c565b91505092915050565b600060208284031215612fb257612fb1612a92565b5b600082013567ffffffffffffffff811115612fd057612fcf612a97565b5b612fdc84828501612f6e565b91505092915050565b600060208284031215612ffb57612ffa612a92565b5b600061300984828501612ce8565b91505092915050565b61301b81612b21565b811461302657600080fd5b50565b60008135905061303881613012565b92915050565b6000806040838503121561305557613054612a92565b5b600061306385828601612ce8565b925050602061307485828601613029565b9150509250929050565b60006020828403121561309457613093612a92565b5b60006130a284828501613029565b91505092915050565b600067ffffffffffffffff8211156130c6576130c5612e71565b5b6130cf82612ba6565b9050602081019050919050565b60006130ef6130ea846130ab565b612ed1565b90508281526020810184848401111561310b5761310a612e6c565b5b613116848285612f1d565b509392505050565b600082601f83011261313357613132612d3d565b5b81356131438482602086016130dc565b91505092915050565b6000806000806080858703121561316657613165612a92565b5b600061317487828801612ce8565b945050602061318587828801612ce8565b935050604061319687828801612c33565b925050606085013567ffffffffffffffff8111156131b7576131b6612a97565b5b6131c38782880161311e565b91505092959194509250565b600080604083850312156131e6576131e5612a92565b5b60006131f485828601612ce8565b925050602061320585828601612ce8565b9150509250929050565b7f4e487b7100000000000000000000000000000000000000000000000000000000600052602260045260246000fd5b6000600282049050600182168061325657607f821691505b6020821081141561326a5761326961320f565b5b50919050565b7f4552433732313a20617070726f76656420717565727920666f72206e6f6e657860008201527f697374656e7420746f6b656e0000000000000000000000000000000000000000602082015250565b60006132cc602c83612b62565b91506132d782613270565b604082019050919050565b600060208201905081810360008301526132fb816132bf565b9050919050565b7f4552433732313a20617070726f76616c20746f2063757272656e74206f776e6560008201527f7200000000000000000000000000000000000000000000000000000000000000602082015250565b600061335e602183612b62565b915061336982613302565b604082019050919050565b6000602082019050818103600083015261338d81613351565b9050919050565b7f4552433732313a20617070726f76652063616c6c6572206973206e6f74206f7760008201527f6e6572206e6f7220617070726f76656420666f7220616c6c0000000000000000602082015250565b60006133f0603883612b62565b91506133fb82613394565b604082019050919050565b6000602082019050818103600083015261341f816133e3565b9050919050565b7f4f776e61626c653a2063616c6c6572206973206e6f7420746865206f776e6572600082015250565b600061345c602083612b62565b915061346782613426565b602082019050919050565b6000602082019050818103600083015261348b8161344f565b9050919050565b7f4e487b7100000000000000000000000000000000000000000000000000000000600052603260045260246000fd5b7f4552525f4e554c4c5f4144445245535300000000000000000000000000000000600082015250565b60006134f7601083612b62565b9150613502826134c1565b602082019050919050565b60006020820190508181036000830152613526816134ea565b9050919050565b7f4e487b7100000000000000000000000000000000000000000000000000000000600052601160045260246000fd5b600061356782612c12565b91507fffffffffffffffffffffffffffffffffffffffffffffffffffffffffffffffff82141561359a5761359961352d565b5b600182019050919050565b7f4552525f4d494e54494e475f5041555345440000000000000000000000000000600082015250565b60006135db601283612b62565b91506135e6826135a5565b602082019050919050565b6000602082019050818103600083015261360a816135ce565b9050919050565b7f4552525f4e4f545f4d494e544552000000000000000000000000000000000000600082015250565b6000613647600e83612b62565b915061365282613611565b602082019050919050565b600060208201905081810360008301526136768161363a565b9050919050565b600061368882612c12565b915061369383612c12565b9250827fffffffffffffffffffffffffffffffffffffffffffffffffffffffffffffffff038211156136c8576136c761352d565b5b828201905092915050565b7f4552433732313a207472616e736665722063616c6c6572206973206e6f74206f60008201527f776e6572206e6f7220617070726f766564000000000000000000000000000000602082015250565b600061372f603183612b62565b915061373a826136d3565b604082019050919050565b6000602082019050818103600083015261375e81613722565b9050919050565b7f455243373231456e756d657261626c653a206f776e657220696e646578206f7560008201527f74206f6620626f756e6473000000000000000000000000000000000000000000602082015250565b60006137c1602b83612b62565b91506137cc82613765565b604082019050919050565b600060208201905081810360008301526137f0816137b4565b9050919050565b600061380282612c12565b915061380d83612c12565b9250817fffffffffffffffffffffffffffffffffffffffffffffffffffffffffffffffff04831182151516156138465761384561352d565b5b828202905092915050565b7f4e487b7100000000000000000000000000000000000000000000000000000000600052601260045260246000fd5b600061388b82612c12565b915061389683612c12565b9250826138a6576138a5613851565b5b828204905092915050565b7f455243373231456e756d657261626c653a20676c6f62616c20696e646578206f60008201527f7574206f6620626f756e64730000000000000000000000000000000000000000602082015250565b600061390d602c83612b62565b9150613918826138b1565b604082019050919050565b6000602082019050818103600083015261393c81613900565b9050919050565b7f4552433732313a206f776e657220717565727920666f72206e6f6e657869737460008201527f656e7420746f6b656e0000000000000000000000000000000000000000000000602082015250565b600061399f602983612b62565b91506139aa82613943565b604082019050919050565b600060208201905081810360008301526139ce81613992565b9050919050565b7f4552433732313a2062616c616e636520717565727920666f7220746865207a6560008201527f726f206164647265737300000000000000000000000000000000000000000000602082015250565b6000613a31602a83612b62565b9150613a3c826139d5565b604082019050919050565b60006020820190508181036000830152613a6081613a24565b9050919050565b7f4552433732313a20617070726f766520746f2063616c6c657200000000000000600082015250565b6000613a9d601983612b62565b9150613aa882613a67565b602082019050919050565b60006020820190508181036000830152613acc81613a90565b9050919050565b7f4552525f494e56414c49445f544f4b454e5f4944000000000000000000000000600082015250565b6000613b09601483612b62565b9150613b1482613ad3565b602082019050919050565b60006020820190508181036000830152613b3881613afc565b9050919050565b600081905092915050565b60008190508160005260206000209050919050565b60008154613b6c8161323e565b613b768186613b3f565b94506001821660008114613b915760018114613ba257613bd5565b60ff19831686528186019350613bd5565b613bab85613b4a565b60005b83811015613bcd57815481890152600182019150602081019050613bae565b838801955050505b50505092915050565b6000613be982612b57565b613bf38185613b3f565b9350613c03818560208601612b73565b80840191505092915050565b6000613c1b8285613b5f565b9150613c278284613bde565b91508190509392505050565b7f4f776e61626c653a206e6577206f776e657220697320746865207a65726f206160008201527f6464726573730000000000000000000000000000000000000000000000000000602082015250565b6000613c8f602683612b62565b9150613c9a82613c33565b604082019050919050565b60006020820190508181036000830152613cbe81613c82565b9050919050565b7f4552433732313a206f70657261746f7220717565727920666f72206e6f6e657860008201527f697374656e7420746f6b656e0000000000000000000000000000000000000000602082015250565b6000613d21602c83612b62565b9150613d2c82613cc5565b604082019050919050565b60006020820190508181036000830152613d5081613d14565b9050919050565b7f4552433732313a207472616e73666572206f6620746f6b656e2074686174206960008201527f73206e6f74206f776e0000000000000000000000000000000000000000000000602082015250565b6000613db3602983612b62565b9150613dbe82613d57565b604082019050919050565b60006020820190508181036000830152613de281613da6565b9050919050565b7f4552433732313a207472616e7366657220746f20746865207a65726f2061646460008201527f7265737300000000000000000000000000000000000000000000000000000000602082015250565b6000613e45602483612b62565b9150613e5082613de9565b604082019050919050565b60006020820190508181036000830152613e7481613e38565b9050919050565b6000613e8682612c12565b9150613e9183612c12565b925082821015613ea457613ea361352d565b5b828203905092915050565b7f4552433732313a207472616e7366657220746f206e6f6e20455243373231526560008201527f63656976657220696d706c656d656e7465720000000000000000000000000000602082015250565b6000613f0b603283612b62565b9150613f1682613eaf565b604082019050919050565b60006020820190508181036000830152613f3a81613efe565b9050919050565b6000613f4c82612c12565b9150613f5783612c12565b925082613f6757613f66613851565b5b828206905092915050565b600081519050919050565b600082825260208201905092915050565b6000613f9982613f72565b613fa38185613f7d565b9350613fb3818560208601612b73565b613fbc81612ba6565b840191505092915050565b6000608082019050613fdc6000830187612ca7565b613fe96020830186612ca7565b613ff66040830185612def565b81810360608301526140088184613f8e565b905095945050505050565b60008151905061402281612ac8565b92915050565b60006020828403121561403e5761403d612a92565b5b600061404c84828501614013565b91505092915050565b7f4552433732313a206d696e7420746f20746865207a65726f2061646472657373600082015250565b600061408b602083612b62565b915061409682614055565b602082019050919050565b600060208201905081810360008301526140ba8161407e565b9050919050565b7f4552433732313a20746f6b656e20616c7265616479206d696e74656400000000600082015250565b60006140f7601c83612b62565b9150614102826140c1565b602082019050919050565b60006020820190508181036000830152614126816140ea565b9050919050565b7f4e487b7100000000000000000000000000000000000000000000000000000000600052603160045260246000fdfea2646970667358221220a5da723b343aa8d40e0c1ad0161ad20670095dcd77693c372f04d0fa4573cdd064736f6c63430008090033",
  "immutableReferences": {},
  "source": "// SPDX-License-Identifier: UNLICENSED\npragma solidity ^0.8.0;\n\nimport \"@openzeppelin/contracts/token/ERC721/ERC721.sol\";\nimport \"@openzeppelin/contracts/token/ERC721/extensions/ERC721Enumerable.sol\";\nimport \"@openzeppelin/contracts/access/Ownable.sol\";\n\ncontract ZNft is ERC721Enumerable, Ownable {\n    using Strings for uint256;\n\n    // Configurable constants\n    uint256 public constant MAX_SUPPLY = 100;\n    uint256 public constant PRICE = 0.123 ether;\n\n    // See also: constructor() where token name and symbol is defined\n    // --- end configurable constants\n\n    // Profit sharing addresses (see withdraw() for more details)\n    address private _devAddress1 = 0xd3bE9b0efa08eC7Fb13F98d36354ffA3aFa9BB91;\n\n    // Base URI for generating token metadata URL\n    // If this was https://example.com/ token id 5 would generate https://example.com/5\n    string public BASE_URI;\n\n    // Addresses that are allowed to mint\n    // All addresses are allowed to mint if public minting is turned on\n    mapping(address => bool) public minters;\n\n    // If this is true, no one is allowed to mint\n    bool public mintingPaused = false;\n\n    // If this is true, anyone is allowed to mint\n    // If this is false, only approved minters are allowed to mint\n    bool public allowPublicMint = false;\n\n    constructor() ERC721(\"Z NFT Template v1\", \"ZNFT1\") {}\n\n    // Pause minting for all addresses\n    function setMintingPaused(bool isPaused) external onlyOwner {\n        mintingPaused = isPaused;\n    }\n\n    // Allow anyone to mint\n    function setAllowPublicMint(bool isAllowed) external onlyOwner {\n        allowPublicMint = isAllowed;\n    }\n\n    function addToMinters(address[] calldata addrs) external onlyOwner {\n        for(uint256 i = 0; i < addrs.length; i++) {\n            address addr = addrs[i];\n            require(addr != address(0), \"ERR_NULL_ADDRESS\");\n\n            minters[addr] = true;\n        }\n    }\n\n    function isMinter(address addr) external view returns (bool) {\n        return minters[addr];\n    }\n\n    function mint() external payable {\n        require(!mintingPaused, \"ERR_MINTING_PAUSED\");\n        require(minters[msg.sender] || allowPublicMint, \"ERR_NOT_MINTER\");\n\n        // msg.value is price paid\n        require(msg.value >= PRICE);\n\n        uint256 mintId = totalSupply() + 1;\n        require(mintId <= MAX_SUPPLY);\n\n        _safeMint(msg.sender, mintId);\n    }\n\n    function tokenURI(uint256 tokenId) public view override(ERC721) returns (string memory) {\n        require(_exists(tokenId), \"ERR_INVALID_TOKEN_ID\");\n\n        return string(abi.encodePacked(BASE_URI, tokenId.toString()));\n    }\n\n    function setBaseURI(string memory uri) public onlyOwner {\n        BASE_URI = uri;\n    }\n\n    function withdraw() external onlyOwner {\n        // 2% fee to _devAddress1\n        payable(_devAddress1).transfer(address(this).balance * 2 / 100);\n\n        // Remaining balance to contract owner\n        payable(msg.sender).transfer(address(this).balance);\n    }\n}",
  "sourcePath": "C:\\Users\\adean\\projects\\fathernft\\demo-from-template\\contracts\\ZNft.sol",
  "compiler": {
    "name": "solc",
    "version": "0.8.9+commit.e5eed63a.Emscripten.clang"
  },
  "schemaVersion": "3.4.3",
  "updatedAt": "2021-11-03T23:09:44.313Z",
  "networkType": "ethereum",
  "devdoc": {
    "kind": "dev",
    "methods": {
      "approve(address,uint256)": {
        "details": "See {IERC721-approve}."
      },
      "balanceOf(address)": {
        "details": "See {IERC721-balanceOf}."
      },
      "getApproved(uint256)": {
        "details": "See {IERC721-getApproved}."
      },
      "isApprovedForAll(address,address)": {
        "details": "See {IERC721-isApprovedForAll}."
      },
      "name()": {
        "details": "See {IERC721Metadata-name}."
      },
      "owner()": {
        "details": "Returns the address of the current owner."
      },
      "ownerOf(uint256)": {
        "details": "See {IERC721-ownerOf}."
      },
      "renounceOwnership()": {
        "details": "Leaves the contract without owner. It will not be possible to call `onlyOwner` functions anymore. Can only be called by the current owner. NOTE: Renouncing ownership will leave the contract without an owner, thereby removing any functionality that is only available to the owner."
      },
      "safeTransferFrom(address,address,uint256)": {
        "details": "See {IERC721-safeTransferFrom}."
      },
      "safeTransferFrom(address,address,uint256,bytes)": {
        "details": "See {IERC721-safeTransferFrom}."
      },
      "setApprovalForAll(address,bool)": {
        "details": "See {IERC721-setApprovalForAll}."
      },
      "supportsInterface(bytes4)": {
        "details": "See {IERC165-supportsInterface}."
      },
      "symbol()": {
        "details": "See {IERC721Metadata-symbol}."
      },
      "tokenByIndex(uint256)": {
        "details": "See {IERC721Enumerable-tokenByIndex}."
      },
      "tokenOfOwnerByIndex(address,uint256)": {
        "details": "See {IERC721Enumerable-tokenOfOwnerByIndex}."
      },
      "tokenURI(uint256)": {
        "details": "See {IERC721Metadata-tokenURI}."
      },
      "totalSupply()": {
        "details": "See {IERC721Enumerable-totalSupply}."
      },
      "transferFrom(address,address,uint256)": {
        "details": "See {IERC721-transferFrom}."
      },
      "transferOwnership(address)": {
        "details": "Transfers ownership of the contract to a new account (`newOwner`). Can only be called by the current owner."
      }
    },
    "version": 1
  },
  "userdoc": {
    "kind": "user",
    "methods": {},
    "version": 1
  }
}